{"abi":[{"type":"constructor","inputs":[{"name":"_core","type":"address","internalType":"address"}],"stateMutability":"nonpayable"},{"type":"function","name":"analyzeAuthenticity","inputs":[{"name":"mediaHash","type":"bytes32","internalType":"bytes32"}],"outputs":[],"stateMutability":"nonpayable"},{"type":"function","name":"core","inputs":[],"outputs":[{"name":"","type":"address","internalType":"contract VeritasCore"}],"stateMutability":"view"},{"type":"function","name":"fetchContext","inputs":[{"name":"mediaHash","type":"bytes32","internalType":"bytes32"},{"name":"mediaUri","type":"string","internalType":"string"}],"outputs":[],"stateMutability":"nonpayable"},{"type":"function","name":"mockMode","inputs":[],"outputs":[{"name":"","type":"bool","internalType":"bool"}],"stateMutability":"view"},{"type":"function","name":"owner","inputs":[],"outputs":[{"name":"","type":"address","internalType":"address"}],"stateMutability":"view"},{"type":"function","name":"pendingContext","inputs":[{"name":"","type":"bytes32","internalType":"bytes32"}],"outputs":[{"name":"","type":"bytes","internalType":"bytes"}],"stateMutability":"view"},{"type":"function","name":"renounceOwnership","inputs":[],"outputs":[],"stateMutability":"nonpayable"},{"type":"function","name":"setMockMode","inputs":[{"name":"_mock","type":"bool","internalType":"bool"}],"outputs":[],"stateMutability":"nonpayable"},{"type":"function","name":"transferOwnership","inputs":[{"name":"newOwner","type":"address","internalType":"address"}],"outputs":[],"stateMutability":"nonpayable"},{"type":"event","name":"OwnershipTransferred","inputs":[{"name":"previousOwner","type":"address","indexed":true,"internalType":"address"},{"name":"newOwner","type":"address","indexed":true,"internalType":"address"}],"anonymous":false},{"type":"error","name":"OwnableInvalidOwner","inputs":[{"name":"owner","type":"address","internalType":"address"}]},{"type":"error","name":"OwnableUnauthorizedAccount","inputs":[{"name":"account","type":"address","internalType":"address"}]}],"bytecode":{"object":"0x6080346100c257601f610de438819003918201601f19168301916001600160401b038311848410176100c6578084926020946040528339810103126100c257516001600160a01b0390818116908190036100c25733156100aa575f5460018060a01b03199033828216175f55604051933391167f8be0079c531659141344cd1fd0a4f28419497f9722a3daafe3b4186f6b6457e05f80a36001541617600155610d0990816100db8239f35b604051631e4fbdf760e01b81525f6004820152602490fd5b5f80fd5b634e487b7160e01b5f52604160045260245ffdfe604060808152600480361015610013575f80fd5b5f91823560e01c80630188971e1461063f578063715018a6146105e6578063751222c9146105bf5780638da5cb5b14610597578063b36977ad14610556578063b6925afe14610510578063da6e2c9714610144578063f2f4eb26146101175763f2fde38b14610080575f80fd5b34610113576020366003190112610113576001600160a01b0382358181169391929084900361010f576100b1610c69565b83156100f95750505f54826bffffffffffffffffffffffff60a01b8216175f55167f8be0079c531659141344cd1fd0a4f28419497f9722a3daafe3b4186f6b6457e05f80a380f35b51631e4fbdf760e01b8152908101849052602490fd5b8480fd5b8280fd5b83823461014057816003193601126101405760015490516001600160a01b039091168152602090f35b5080fd5b503461011357806003193601126101135767ffffffffffffffff91803591906024803585811161039c573660238201121561039c578083013586811161050c57828201918382369201011161050c576001918860ff845460a01c165f14610475575060316101e59183885194859270026b7b1b59031b7b73a32bc3a103337b91607d1b60208501528484013781018b83820152036011810184520182610b68565b858852602096600288528589209180519182116104635781906102088454610ad0565b601f8111610413575b508990601f83116001146103b5578b926103aa575b50505f19600383901b1c191690831b1790555b805487906001600160a01b0316803b1561014057818091604488518094819363054372ed60e01b83528c8b840152888a8401525af180156103a057610388575b505083519462c44b8f60e11b878701528286015281855261029985610b30565b63ffffffff818143160181811161037657916101409391889593620c35006102d989519a8b9889986326ebb89960e11b8a52890152610144880190610c2b565b948601521660448401526064830152876084830152606460a48301526402540be40060c4830152637735940060e483015287610104830152306101248301520381877356e776bae2dd60664b69bd5f865f1180ffb7d58b5af190811561036d5750610342578280f35b813d8311610366575b6103558183610b68565b81010312610363575f808280f35b80fd5b503d61034b565b513d85823e3d90fd5b634e487b7160e01b8952601185528389fd5b61039190610b08565b61039c57865f610279565b8680fd5b86513d84823e3d90fd5b015190505f80610226565b848c528a8c208694509190601f1984168d5b8d8282106103fd57505084116103e5575b505050811b019055610239565b01515f1960f88460031b161c191690555f80806103d8565b83850151865589979095019493840193016103c7565b909150838b52898b20601f840160051c8101918b8510610459575b84939291601f88920160051c01915b82811061044b575050610211565b8d815585945087910161043d565b909150819061042e565b634e487b7160e01b8a5260418652848afd5b919082916104a9868951838194602083019663023a2aa160e51b885284840137810186838201520389810184520182610b68565b5190826108015af16104b9610c94565b906101e55750506020608493519262461bcd60e51b8452830152808201527f566572697461734167656e743a204854545020707265636f6d70696c652066616044820152631a5b195960e21b6064820152fd5b8780fd5b505034610140576020366003190112610140573580151580910361014057610536610c69565b6001805460ff60a01b191660a09290921b60ff60a01b1691909117905580f35b50903461011357602036600319011261011357816105939361058092358152600260205220610b8a565b9051918291602083526020830190610c2b565b0390f35b838234610140578160031936011261014057905490516001600160a01b039091168152602090f35b83823461014057816003193601126101405760209060ff60015460a01c1690519015158152f35b83346103635780600319360112610363576105ff610c69565b5f80546001600160a01b0319811682556001600160a01b03167f8be0079c531659141344cd1fd0a4f28419497f9722a3daafe3b4186f6b6457e08280a380f35b509190346101405760209283600319360112610113578135918284526002855261066a828520610b8a565b805115610a8e576001546001600160a01b0396908716803b1561039c57845163054372ed60e01b815286858201528781604481836024966002888401525af18015610a8457610a71575b50868351838501209360ff60015460a01c165f1461093f575050606485518381019088825243888201528781526106ea81610b30565b5190200660468110156108215760966103529106810180911161080f579387927f4d6f636b20616e616c797369733a20436f6e74657874206d617463686573207487519161073783610b4c565b604c83528201527f72757374656420736f75726365732e20436f6e74656e7420696e746567726974878201526b3c90383932b9b2b93b32b21760a11b6060820152985b6001541694853b1561080b578651976360741d7960e01b8952828901528288015260038310156107fa575050918486816107ce829a829684986044850152606484015260a0608484015260a4830190610c2b565b03925af19081156107f157506107e15750f35b6107ea90610b08565b6103635780f35b513d84823e3d90fd5b634e487b7160e01b88526021905286fd5b8880fd5b50634e487b7160e01b87526011845286fd5b605a8110156108b15760c86101f49106810180911161080f57936001927f4d6f636b20616e616c797369733a204d697373696e67206d657461646174612087519161086b83610b4c565b604b83528201527f616e6420756e757375616c20636f6d7072657373696f6e206172746966616374878201526a39903232ba32b1ba32b21760a91b60608201529861077a565b61012c90066064018060641161080f57936002927f4d6f636b20616e616c797369733a205369676e69666963616e742066616369618751916108f283610b4c565b605283528201527f6c20626c656e64696e6720696e636f6e73697374656e6369657320616e64206c878201527130b1b59037b310383937bb32b730b731b29760711b60608201529861077a565b819087516109ac8161099e888201948c8652602760608401527f416e616c797a652061757468656e746963697479206261736564206f6e20636f6080840152660373a32bc3a1d160cd1b60a084015260a08d84015260c0830190610c2b565b03601f198101835282610b68565b5190826108025af16109bc610c94565b5015610a245761032c93879286519087820182811067ffffffffffffffff821117610a12578852601c82527f5265616c204c4c4d20726573706f6e73652073696d756c617465642e00000000908201529861077a565b84604185634e487b7160e01b5f52525ffd5b9060239250608494519362461bcd60e51b85528401528201527f566572697461734167656e743a204c4c4d20707265636f6d70696c65206661696044820152621b195960ea1b6064820152fd5b610a7d90979197610b08565b955f6106b4565b86513d8a823e3d90fd5b5084606492519162461bcd60e51b8352820152601e60248201527f566572697461734167656e743a206e6f20636f6e7465787420666f756e6400006044820152fd5b90600182811c92168015610afe575b6020831014610aea57565b634e487b7160e01b5f52602260045260245ffd5b91607f1691610adf565b67ffffffffffffffff8111610b1c57604052565b634e487b7160e01b5f52604160045260245ffd5b6060810190811067ffffffffffffffff821117610b1c57604052565b6080810190811067ffffffffffffffff821117610b1c57604052565b90601f8019910116810190811067ffffffffffffffff821117610b1c57604052565b9060405191825f825492610b9d84610ad0565b9081845260019485811690815f14610c085750600114610bc8575b5050610bc692500383610b68565b565b909391505f52602090815f20935f915b818310610bf0575050610bc693508201015f80610bb8565b85548884018501529485019487945091830191610bd8565b915050610bc694506020925060ff191682840152151560051b8201015f80610bb8565b91908251928382525f5b848110610c55575050825f602080949584010152601f8019910116010190565b602081830181015184830182015201610c35565b5f546001600160a01b03163303610c7c57565b60405163118cdaa760e01b8152336004820152602490fd5b3d15610cce573d9067ffffffffffffffff8211610b1c5760405191610cc3601f8201601f191660200184610b68565b82523d5f602084013e565b60609056fea2646970667358221220bed7f81ad67646844fd74cc94a343fdeb689c386c33c0ebeda55df9d6a6aa92564736f6c63430008140033","linkReferences":{}},"methodIdentifiers":{"analyzeAuthenticity(bytes32)":"0188971e","core()":"f2f4eb26","fetchContext(bytes32,string)":"da6e2c97","mockMode()":"751222c9","owner()":"8da5cb5b","pendingContext(bytes32)":"b36977ad","renounceOwnership()":"715018a6","setMockMode(bool)":"b6925afe","transferOwnership(address)":"f2fde38b"},"id":34}