{"abi":[{"type":"constructor","inputs":[{"name":"_veriToken","type":"address","internalType":"address"}],"stateMutability":"nonpayable"},{"type":"function","name":"agent","inputs":[],"outputs":[{"name":"","type":"address","internalType":"address"}],"stateMutability":"view"},{"type":"function","name":"approve","inputs":[{"name":"to","type":"address","internalType":"address"},{"name":"tokenId","type":"uint256","internalType":"uint256"}],"outputs":[],"stateMutability":"nonpayable"},{"type":"function","name":"balanceOf","inputs":[{"name":"owner","type":"address","internalType":"address"}],"outputs":[{"name":"","type":"uint256","internalType":"uint256"}],"stateMutability":"view"},{"type":"function","name":"fulfillVerification","inputs":[{"name":"mediaHash","type":"bytes32","internalType":"bytes32"},{"name":"score","type":"uint256","internalType":"uint256"},{"name":"verdict","type":"uint8","internalType":"enum VeritasCore.Verdict"},{"name":"contextHash","type":"bytes32","internalType":"bytes32"},{"name":"reasoning","type":"string","internalType":"string"}],"outputs":[],"stateMutability":"nonpayable"},{"type":"function","name":"getApproved","inputs":[{"name":"tokenId","type":"uint256","internalType":"uint256"}],"outputs":[{"name":"","type":"address","internalType":"address"}],"stateMutability":"view"},{"type":"function","name":"isApprovedForAll","inputs":[{"name":"owner","type":"address","internalType":"address"},{"name":"operator","type":"address","internalType":"address"}],"outputs":[{"name":"","type":"bool","internalType":"bool"}],"stateMutability":"view"},{"type":"function","name":"name","inputs":[],"outputs":[{"name":"","type":"string","internalType":"string"}],"stateMutability":"view"},{"type":"function","name":"owner","inputs":[],"outputs":[{"name":"","type":"address","internalType":"address"}],"stateMutability":"view"},{"type":"function","name":"ownerOf","inputs":[{"name":"tokenId","type":"uint256","internalType":"uint256"}],"outputs":[{"name":"","type":"address","internalType":"address"}],"stateMutability":"view"},{"type":"function","name":"records","inputs":[{"name":"","type":"bytes32","internalType":"bytes32"}],"outputs":[{"name":"mediaHash","type":"bytes32","internalType":"bytes32"},{"name":"mediaUri","type":"string","internalType":"string"},{"name":"submitter","type":"address","internalType":"address"},{"name":"authenticityScore","type":"uint256","internalType":"uint256"},{"name":"verdict","type":"uint8","internalType":"enum VeritasCore.Verdict"},{"name":"verifiedAt","type":"uint256","internalType":"uint256"},{"name":"contextHash","type":"bytes32","internalType":"bytes32"},{"name":"reasoning","type":"string","internalType":"string"},{"name":"status","type":"uint8","internalType":"enum VeritasCore.VerificationStatus"}],"stateMutability":"view"},{"type":"function","name":"renounceOwnership","inputs":[],"outputs":[],"stateMutability":"nonpayable"},{"type":"function","name":"safeTransferFrom","inputs":[{"name":"from","type":"address","internalType":"address"},{"name":"to","type":"address","internalType":"address"},{"name":"tokenId","type":"uint256","internalType":"uint256"}],"outputs":[],"stateMutability":"nonpayable"},{"type":"function","name":"safeTransferFrom","inputs":[{"name":"from","type":"address","internalType":"address"},{"name":"to","type":"address","internalType":"address"},{"name":"tokenId","type":"uint256","internalType":"uint256"},{"name":"data","type":"bytes","internalType":"bytes"}],"outputs":[],"stateMutability":"nonpayable"},{"type":"function","name":"setAgent","inputs":[{"name":"_agent","type":"address","internalType":"address"}],"outputs":[],"stateMutability":"nonpayable"},{"type":"function","name":"setApprovalForAll","inputs":[{"name":"operator","type":"address","internalType":"address"},{"name":"approved","type":"bool","internalType":"bool"}],"outputs":[],"stateMutability":"nonpayable"},{"type":"function","name":"setStakeRequired","inputs":[{"name":"_amount","type":"uint256","internalType":"uint256"}],"outputs":[],"stateMutability":"nonpayable"},{"type":"function","name":"stakeRequired","inputs":[],"outputs":[{"name":"","type":"uint256","internalType":"uint256"}],"stateMutability":"view"},{"type":"function","name":"submitForVerification","inputs":[{"name":"mediaHash","type":"bytes32","internalType":"bytes32"},{"name":"mediaUri","type":"string","internalType":"string"}],"outputs":[],"stateMutability":"nonpayable"},{"type":"function","name":"supportsInterface","inputs":[{"name":"interfaceId","type":"bytes4","internalType":"bytes4"}],"outputs":[{"name":"","type":"bool","internalType":"bool"}],"stateMutability":"view"},{"type":"function","name":"symbol","inputs":[],"outputs":[{"name":"","type":"string","internalType":"string"}],"stateMutability":"view"},{"type":"function","name":"tokenIdOf","inputs":[{"name":"","type":"bytes32","internalType":"bytes32"}],"outputs":[{"name":"","type":"uint256","internalType":"uint256"}],"stateMutability":"view"},{"type":"function","name":"tokenURI","inputs":[{"name":"tokenId","type":"uint256","internalType":"uint256"}],"outputs":[{"name":"","type":"string","internalType":"string"}],"stateMutability":"view"},{"type":"function","name":"transferFrom","inputs":[{"name":"from","type":"address","internalType":"address"},{"name":"to","type":"address","internalType":"address"},{"name":"tokenId","type":"uint256","internalType":"uint256"}],"outputs":[],"stateMutability":"nonpayable"},{"type":"function","name":"transferOwnership","inputs":[{"name":"newOwner","type":"address","internalType":"address"}],"outputs":[],"stateMutability":"nonpayable"},{"type":"function","name":"updateStatus","inputs":[{"name":"mediaHash","type":"bytes32","internalType":"bytes32"},{"name":"status","type":"uint8","internalType":"enum VeritasCore.VerificationStatus"}],"outputs":[],"stateMutability":"nonpayable"},{"type":"function","name":"veriToken","inputs":[],"outputs":[{"name":"","type":"address","internalType":"contract IERC20"}],"stateMutability":"view"},{"type":"event","name":"Approval","inputs":[{"name":"owner","type":"address","indexed":true,"internalType":"address"},{"name":"approved","type":"address","indexed":true,"internalType":"address"},{"name":"tokenId","type":"uint256","indexed":true,"internalType":"uint256"}],"anonymous":false},{"type":"event","name":"ApprovalForAll","inputs":[{"name":"owner","type":"address","indexed":true,"internalType":"address"},{"name":"operator","type":"address","indexed":true,"internalType":"address"},{"name":"approved","type":"bool","indexed":false,"internalType":"bool"}],"anonymous":false},{"type":"event","name":"OwnershipTransferred","inputs":[{"name":"previousOwner","type":"address","indexed":true,"internalType":"address"},{"name":"newOwner","type":"address","indexed":true,"internalType":"address"}],"anonymous":false},{"type":"event","name":"Transfer","inputs":[{"name":"from","type":"address","indexed":true,"internalType":"address"},{"name":"to","type":"address","indexed":true,"internalType":"address"},{"name":"tokenId","type":"uint256","indexed":true,"internalType":"uint256"}],"anonymous":false},{"type":"event","name":"VerificationCompleted","inputs":[{"name":"mediaHash","type":"bytes32","indexed":true,"internalType":"bytes32"},{"name":"score","type":"uint256","indexed":false,"internalType":"uint256"},{"name":"verdict","type":"uint8","indexed":false,"internalType":"enum VeritasCore.Verdict"}],"anonymous":false},{"type":"event","name":"VerificationFailed","inputs":[{"name":"mediaHash","type":"bytes32","indexed":true,"internalType":"bytes32"},{"name":"reason","type":"string","indexed":false,"internalType":"string"}],"anonymous":false},{"type":"event","name":"VerificationRequested","inputs":[{"name":"mediaHash","type":"bytes32","indexed":true,"internalType":"bytes32"},{"name":"submitter","type":"address","indexed":true,"internalType":"address"},{"name":"mediaUri","type":"string","indexed":false,"internalType":"string"}],"anonymous":false},{"type":"error","name":"ERC721IncorrectOwner","inputs":[{"name":"sender","type":"address","internalType":"address"},{"name":"tokenId","type":"uint256","internalType":"uint256"},{"name":"owner","type":"address","internalType":"address"}]},{"type":"error","name":"ERC721InsufficientApproval","inputs":[{"name":"operator","type":"address","internalType":"address"},{"name":"tokenId","type":"uint256","internalType":"uint256"}]},{"type":"error","name":"ERC721InvalidApprover","inputs":[{"name":"approver","type":"address","internalType":"address"}]},{"type":"error","name":"ERC721InvalidOperator","inputs":[{"name":"operator","type":"address","internalType":"address"}]},{"type":"error","name":"ERC721InvalidOwner","inputs":[{"name":"owner","type":"address","internalType":"address"}]},{"type":"error","name":"ERC721InvalidReceiver","inputs":[{"name":"receiver","type":"address","internalType":"address"}]},{"type":"error","name":"ERC721InvalidSender","inputs":[{"name":"sender","type":"address","internalType":"address"}]},{"type":"error","name":"ERC721NonexistentToken","inputs":[{"name":"tokenId","type":"uint256","internalType":"uint256"}]},{"type":"error","name":"OwnableInvalidOwner","inputs":[{"name":"owner","type":"address","internalType":"address"}]},{"type":"error","name":"OwnableUnauthorizedAccount","inputs":[{"name":"account","type":"address","internalType":"address"}]}],"bytecode":{"object":"0x608034620003df57601f906001600160401b0390601f199062001e3e388190038581018416830185811184821017620003cb57839282916040528339602092839181010312620003df57516001600160a01b03948582169491859003620003df576200006a620003e3565b92601384527f5665726974617320436572746966696361746500000000000000000000000000818501526200009e620003e3565b9060088252671591549250d1549560c21b81830152845195848711620003cb575f968754966001978881811c91168015620003c0575b85821014620003ac5790818784931162000359575b508490878311600114620002f9578a92620002ed575b50505f19600383901b1c191690871b1787555b8251948511620002d95785548681811c91168015620002ce575b83821014620002ba5790818587969594931162000261575b5081938511600114620001fd5750508592620001f1575b50505f19600383901b1c191690821b1781555b3315620001d85760065460018060a01b03199233848316176006557f8be0079c531659141344cd1fd0a4f28419497f9722a3daafe3b4186f6b6457e0604051963393169180a3600955678ac7230489e80000600c55600b541617600b55611a3a9081620004048239f35b604051631e4fbdf760e01b815260048101839052602490fd5b015190505f806200015b565b869593929193168588528388209388905b8282106200024757505084116200022e575b505050811b0181556200016e565b01515f1960f88460031b161c191690555f808062000220565b84840151865588979095019493840193908101906200020e565b9091929394508688528288208580880160051c820192858910620002b0575b9188978a9297969594930160051c01915b828110620002a157505062000144565b8a815588975089910162000291565b9250819262000280565b634e487b7160e01b88526022600452602488fd5b90607f16906200012c565b634e487b7160e01b87526041600452602487fd5b015190505f80620000ff565b90848a9416918b8052868c20928c5b8882821062000342575050841162000329575b505050811b01875562000112565b01515f1960f88460031b161c191690555f80806200031b565b8385015186558d9790950194938401930162000308565b909150898052848a208780850160051c820192878610620003a2575b918b91869594930160051c01915b82811062000393575050620000e9565b8c81558594508b910162000383565b9250819262000375565b634e487b7160e01b8a52602260045260248afd5b90607f1690620000d4565b634e487b7160e01b5f52604160045260245ffd5b5f80fd5b60408051919082016001600160401b03811183821017620003cb5760405256fe60806040526004361015610011575f80fd5b5f3560e01c806301e647251461129f57806301ffc9a7146112315780630501010514611214578063054372ed146111c857806306fdde0314611128578063081812fc146110ec578063095ea7b31461100b57806323b872dd14610ff457806342842e0e14610fcd57806360741d7914610c935780636352211e14610c6357806370a0823114610c0d578063715018a614610bb25780638da5cb5b14610b8a57806395d89b4114610aaa578063963e50bf14610a89578063a22cb465146109e8578063b88d4fde14610986578063bcf685ed14610943578063c87b56dd146107c2578063cd5bfb6314610798578063d600d1c614610770578063e985e9c51461071e578063eab0842e146101ea578063f2fde38b146101635763f5ff5c7614610137575f80fd5b3461015f575f36600319011261015f57600a546040516001600160a01b039091168152602090f35b5f80fd5b3461015f57602036600319011261015f5761017c6114cf565b6101846115b0565b6001600160a01b039081169081156101d257600654826001600160601b0360a01b821617600655167f8be0079c531659141344cd1fd0a4f28419497f9722a3daafe3b4186f6b6457e05f80a3005b604051631e4fbdf760e01b81525f6004820152602490fd5b3461015f57604036600319011261015f5760243567ffffffffffffffff811161015f5761021b903690600401611530565b6004355f52600760205260ff600860405f200154166006811015610532576106d9575f602060018060a01b03600b54166064600c5460405194859384926323b872dd60e01b845233600485015230602485015260448401525af19081156106ce575f91610693575b501561064e57604051610120810181811067ffffffffffffffff8211176105c15760405260043581526102b736838561157a565b90602081019182523360408201525f60608201525f60808201525f60a08201525f60c08201526040516102e9816113a5565b5f815260e08201525f6101008201526004355f52600760205260405f2091815183555180519067ffffffffffffffff82116105c157819061033a82610331600188015461136d565b60018801611909565b602090601f83116001146105e0575f926105d5575b50508160011b915f199060031b1c19161760018301555b6002820160018060a01b036040830151166001600160601b0360a01b8254161790556060810151600383015560808101516003811015610532576103ad906004840161195c565b60a0810151600583015560c0810151600683015560e081015180519067ffffffffffffffff82116105c1576103f2826103e9600787015461136d565b60078701611909565b602090601f8311600114610551576101009392915f9183610546575b50508160011b915f199060031b1c19161760078401555b0151600681101561053257600861043c9201611974565b600a546001600160a01b031680610490575b507f29a6ea4327ca12da11491b435a448592d72a17e4bc83c1110e2d81aac2c598f6604051602081528061048b339560043595602084019161198c565b0390a3005b5f809160405182602082019163da6e2c9760e01b83526004356024820152604060448201526104d5816104c7606482018a8c61198c565b03601f1981018352826113c1565b51925af16104e16118da565b50156104ed578261044e565b60405162461bcd60e51b815260206004820152601e60248201527f56657269746173436f72653a204167656e742063616c6c206661696c656400006044820152606490fd5b634e487b7160e01b5f52602160045260245ffd5b01519050878061040e565b90600785015f5260205f20915f5b601f19851681106105a957509183916001936101009695601f19811610610591575b505050811b016007840155610425565b01515f1960f88460031b161c19169055878080610581565b9192602060018192868501518155019401920161055f565b634e487b7160e01b5f52604160045260245ffd5b01519050868061034f565b9250600185015f5260205f20905f935b601f1984168510610633576001945083601f1981161061061b575b505050811b016001830155610366565b01515f1960f88460031b161c1916905586808061060b565b818101518355602094850194600190930192909101906105f0565b60405162461bcd60e51b815260206004820152601960248201527f56657269746173436f72653a207374616b65206661696c6564000000000000006044820152606490fd5b90506020813d6020116106c6575b816106ae602093836113c1565b8101031261015f5751801515810361015f5783610283565b3d91506106a1565b6040513d5f823e3d90fd5b60405162461bcd60e51b815260206004820152601e60248201527f56657269746173436f72653a20616c7265616479207375626d697474656400006044820152606490fd5b3461015f57604036600319011261015f576107376114cf565b61073f6114e5565b9060018060a01b038091165f52600560205260405f2091165f52602052602060ff60405f2054166040519015158152f35b3461015f575f36600319011261015f57600b546040516001600160a01b039091168152602090f35b3461015f57602036600319011261015f576004355f526008602052602060405f2054604051908152f35b3461015f5760208060031936011261015f576001600160a01b036107e76004356118a0565b16156108ff57604051604081019167ffffffffffffffff92828110848211176105c157604052601d8083527f646174613a6170706c69636174696f6e2f6a736f6e3b6261736536342c0000008284015260405192825f5b8381106108eb57505050507f65794a755957316c496a6f69566d567961585268637942445a584a3061575a70603d8301527f593246305a534973496d526c63324e796158423061573975496a6f6951585630605d8301527f6147567564476c6a6158523549454e6c636e52705a6d6c6a5958526c496e303d607d830152607d825260a0820192828410908411176105c157826040528252609f19906108e660c0820182611484565b030190f35b81818401015182828801015201839061083e565b6064906040519062461bcd60e51b82526004820152601860248201527f4552433732313a20696e76616c696420746f6b656e20494400000000000000006044820152fd5b3461015f57602036600319011261015f5761095c6114cf565b6109646115b0565b600a80546001600160a01b0319166001600160a01b0392909216919091179055005b3461015f57608036600319011261015f5761099f6114cf565b6109a76114e5565b6064359167ffffffffffffffff831161015f573660238401121561015f576109dc6109e693369060248160040135910161157a565b9160443591611777565b005b3461015f57604036600319011261015f57610a016114cf565b6024359081151580920361015f576001600160a01b0316908115610a7057335f52600560205260405f20825f5260205260405f2060ff1981541660ff83161790556040519081527f17307eab39ab6107e8899845ad3d59bd9653f200f220920489ca2b5937696c3160203392a3005b604051630b61174360e31b815260048101839052602490fd5b3461015f57602036600319011261015f57610aa26115b0565b600435600c55005b3461015f575f36600319011261015f576040515f6001805490610acc8261136d565b80855291818116908115610b635750600114610b0b575b610b0784610af3818603826113c1565b604051918291602083526020830190611484565b0390f35b5f81815292507fb10e2d527612073b26eecdfd717e6a320cf44b4afac2b0732d9fcbe2b7fa0cf65b828410610b4b575050508101602001610af382610ae3565b80546020858701810191909152909301928101610b33565b60ff191660208087019190915292151560051b85019092019250610af39150839050610ae3565b3461015f575f36600319011261015f576006546040516001600160a01b039091168152602090f35b3461015f575f36600319011261015f57610bca6115b0565b600680546001600160a01b031981169091555f906001600160a01b03167f8be0079c531659141344cd1fd0a4f28419497f9722a3daafe3b4186f6b6457e08280a3005b3461015f57602036600319011261015f576001600160a01b03610c2e6114cf565b168015610c4b575f526003602052602060405f2054604051908152f35b6040516322718ad960e21b81525f6004820152602490fd5b3461015f57602036600319011261015f576020610c816004356118a0565b6040516001600160a01b039091168152f35b3461015f5760a036600319011261015f576004356024803590604435906003908183101561015f5767ffffffffffffffff9160843583811161015f57610cdd903690600401611530565b600a549092916001600160a01b0391610cf990831633146119ac565b885f526020956007875260405f2094600886019260ff8454166006811015610fba5715610f76578a86880155610d328a6004890161195c565b606435600688015560078701928211610f63578190610d5b82610d55865461136d565b86611909565b5f90601f8311600114610eff575f92610ef4575b50508160011b915f1990871b1c19161790555b4260058501558260ff19825416179055875f526008855260405f205415610dde575b877f7614285c97aa7970b7f871a4ed05fa53ca7edb48fed28573fd1a41e52d48f57b604089610ddb8a8a84519384528301906114c2565ba2005b600954915f1993848414610ee15760028391600186016009558b5f52600889528560405f2055015416918215610eca57835f526002875260405f205416908115159485610e99575b50825f52865260405f2060018154019055825f526002865260405f20826001600160601b0360a01b8254161790557fddf252ad1be2c89b69c2b068fc378daa952ba7f163c4a11628f55a4df523b3ef5f80a4610e8457808080610da4565b6040516339e3563760e11b81525f6004820152fd5b5f85815260046020526040902080546001600160a01b0319169055825f5281885260405f209081540190558a610e26565b604051633250574960e11b81525f60048201528690fd5b85634e487b7160e01b5f5260116004525ffd5b013590508c80610d6f565b909150601f19831691845f528a5f20925f5b8c828210610f4d575050908460019594939210610f36575b505050811b019055610d82565b01355f1983891b60f8161c191690558c8080610f29565b6001849682939587013581550195019201610f11565b87634e487b7160e01b5f5260416004525ffd5b60405162461bcd60e51b8152600481018a9052601d818a01527f56657269746173436f72653a207265636f7264206e6f7420666f756e640000006044820152606490fd5b88634e487b7160e01b5f5260216004525ffd5b3461015f576109e6610fde366114fb565b9060405192610fec846113a5565b5f8452611777565b3461015f576109e6611005366114fb565b916115dc565b3461015f57604036600319011261015f576110246114cf565b602435611030816118a0565b331515806110d9575b806110b0575b611098576001600160a01b039283169282918491167f8c5be1e5ebec7d5bd14f71427d1e84f3dd0314c0f7b2291e5b200ac8c7c3b9255f80a45f90815260046020526040902080546001600160a01b0319169091179055005b60405163a9fbf51f60e01b8152336004820152602490fd5b5060018060a01b0381165f52600560205260405f20335f5260205260ff60405f2054161561103f565b506001600160a01b038116331415611039565b3461015f57602036600319011261015f57600435611109816118a0565b505f526004602052602060018060a01b0360405f205416604051908152f35b3461015f575f36600319011261015f576040515f80546111478161136d565b80845290600190818116908115610b63575060011461117057610b0784610af3818603826113c1565b5f80805292507f290decd9548b62a8d60345a988386fc84ba6bc95484008f6362f93160ef3e5635b8284106111b0575050508101602001610af382610ae3565b80546020858701810191909152909301928101611198565b3461015f57604036600319011261015f57602435600681101561015f576109e6906111fe60018060a01b03600a541633146119ac565b6004355f526007602052600860405f2001611974565b3461015f575f36600319011261015f576020600c54604051908152f35b3461015f57602036600319011261015f5760043563ffffffff60e01b811680910361015f576020906380ac58cd60e01b811490811561128e575b811561127d575b506040519015158152f35b6301ffc9a760e01b14905082611272565b635b5e139f60e01b8114915061126b565b3461015f57602036600319011261015f576004355f52600760205260405f208054906113586112d0600183016113e3565b9160018060a01b0360028201541690600381015460ff60048301541661134160058401549160068501549361132c60ff600861130e60078a016113e3565b98015416996040519b8c5260208c61012091829101528c0190611484565b9660408b015260608a015260808901906114c2565b60a087015260c086015284820360e0860152611484565b60068210156105325782916101008301520390f35b90600182811c9216801561139b575b602083101461138757565b634e487b7160e01b5f52602260045260245ffd5b91607f169161137c565b6020810190811067ffffffffffffffff8211176105c157604052565b90601f8019910116810190811067ffffffffffffffff8211176105c157604052565b9060405191825f8254926113f68461136d565b9081845260019485811690815f146114615750600114611421575b505061141f925003836113c1565b565b909391505f52602090815f20935f915b81831061144957505061141f93508201015f80611411565b85548884018501529485019487945091830191611431565b91505061141f94506020925060ff191682840152151560051b8201015f80611411565b91908251928382525f5b8481106114ae575050825f602080949584010152601f8019910116010190565b60208183018101518483018201520161148e565b9060038210156105325752565b600435906001600160a01b038216820361015f57565b602435906001600160a01b038216820361015f57565b606090600319011261015f576001600160a01b0390600435828116810361015f5791602435908116810361015f579060443590565b9181601f8401121561015f5782359167ffffffffffffffff831161015f576020838186019501011161015f57565b67ffffffffffffffff81116105c157601f01601f191660200190565b9291926115868261155e565b9161159460405193846113c1565b82948184528183011161015f578281602093845f960137010152565b6006546001600160a01b031633036115c457565b60405163118cdaa760e01b8152336004820152602490fd5b6001600160a01b03918216929091831561175f575f928284528260209560028752604096848888205416968791331515806116c9575b509060027fddf252ad1be2c89b69c2b068fc378daa952ba7f163c4a11628f55a4df523b3ef9284611698575b858352600381528b8320805460010190558683525289812080546001600160a01b0319168517905580a416928383036116775750505050565b6064945051926364283d7b60e01b8452600484015260248301526044820152fd5b5f87815260046020526040902080546001600160a01b0319169055848352600381528b832080545f1901905561163e565b9193945091508061171e575b156116e55785929187915f611612565b878688611702576024915190637e27328960e01b82526004820152fd5b604491519063177e802f60e01b82523360048301526024820152fd5b503387148015611743575b806116d557508582526004815233858984205416146116d5565b5086825260058152878220338352815260ff8883205416611729565b604051633250574960e11b81525f6004820152602490fd5b91906117848282856115dc565b803b611791575b50505050565b6117d360018060a01b0380921694604051938493630a85bd0160e11b968786523360048701521660248501526044840152608060648401526084830190611484565b03906020815f938185885af190829082611851575b505061182057826117f76118da565b805191908261181957604051633250574960e11b815260048101839052602490fd5b9050602001fd5b6001600160e01b0319160361183957505f80808061178b565b60249060405190633250574960e11b82526004820152fd5b909192506020813d8211611898575b8161186d602093836113c1565b810103126118945751906001600160e01b0319821682036118915750905f806117e8565b80fd5b5080fd5b3d9150611860565b5f818152600260205260409020546001600160a01b03169081156118c2575090565b60249060405190637e27328960e01b82526004820152fd5b3d15611904573d906118eb8261155e565b916118f960405193846113c1565b82523d5f602084013e565b606090565b90601f811161191757505050565b5f91825260208220906020601f850160051c83019410611952575b601f0160051c01915b82811061194757505050565b81815560010161193b565b9092508290611932565b9060038110156105325760ff80198354169116179055565b9060068110156105325760ff80198354169116179055565b908060209392818452848401375f828201840152601f01601f1916010190565b156119b357565b60405162461bcd60e51b8152602060048201526024808201527f56657269746173436f72653a2063616c6c6572206973206e6f7420746865206160448201526319d95b9d60e21b6064820152608490fdfea2646970667358221220369ff961d909e5c8d76e851d3ac91295de61ece0cf372329da5e846bf53cc09064736f6c63430008140033","linkReferences":{}},"methodIdentifiers":{"agent()":"f5ff5c76","approve(address,uint256)":"095ea7b3","balanceOf(address)":"70a08231","fulfillVerification(bytes32,uint256,uint8,bytes32,string)":"60741d79","getApproved(uint256)":"081812fc","isApprovedForAll(address,address)":"e985e9c5","name()":"06fdde03","owner()":"8da5cb5b","ownerOf(uint256)":"6352211e","records(bytes32)":"01e64725","renounceOwnership()":"715018a6","safeTransferFrom(address,address,uint256)":"42842e0e","safeTransferFrom(address,address,uint256,bytes)":"b88d4fde","setAgent(address)":"bcf685ed","setApprovalForAll(address,bool)":"a22cb465","setStakeRequired(uint256)":"963e50bf","stakeRequired()":"05010105","submitForVerification(bytes32,string)":"eab0842e","supportsInterface(bytes4)":"01ffc9a7","symbol()":"95d89b41","tokenIdOf(bytes32)":"cd5bfb63","tokenURI(uint256)":"c87b56dd","transferFrom(address,address,uint256)":"23b872dd","transferOwnership(address)":"f2fde38b","updateStatus(bytes32,uint8)":"054372ed","veriToken()":"d600d1c6"},"id":35}